:100000000C947C000C943A0E0C94670E0C94AB0983
:100010000C94AB090C94AB090C94A4000C94A400B0
:100020000C94A4000C9429010C94A4000C94A4003A
:100030000C94A4000C94A4000C94A4000C94A400B0
:100040000C94940E0C94A4000C94D5110C940712EB
:100050000C94A4000C94A4000C94A4000C94A40090
:100060000C94ED0C0C94A400084AD73B3BCE016ED7
:1000700084BCBFFDC12F3D6C74319ABD56833DDAFF
:100080003D00C77F11BED9E4BB4C3E916BAAAABE0E
:10009000000000803F000000000800020100000393
:1000A0000407000000000000000001020408102006
:1000B00040800102040810200102040810200404FA
:1000C0000404040404040202020202020303030300
:1000D00003030000000023002600290000000000A8
:1000E000250028002B0000000000240027002A0023
:1000F000FC010B0C3712090211241FBECFEFD8E010
:10010000DEBFCDBF11E0A0E0B1E0E4ECF4E302C05B
:1001100005900D92AE34B107D9F723E0AEE4B1E01B
:1001200001C01D92AB38B207E1F710E0C6EFD0E096
:1001300004C02297FE010E94DD17C03FD107C9F716
:100140000E947B120C94551A0C940000809190012F
:1001500090919101019690939101809390018091EB
:100160005201909153010196909353018093520153
:1001700086399105B9F48091940190919501A091EF
:100180009601B09197010196A11DB11D8093940134
:1001900090939501A0939601B0939701109253010B
:1001A000109252018DE00E94671061E0892B09F0E6
:1001B00060E08DE00C943110809192019091930158
:1001C00001969093930180939201809150019091B8
:1001D0005101019690935101809350018639910508
:1001E000B9F48091980190919901A0919A01B091F0
:1001F0009B010196A11DB11D8093980190939901D7
:10020000A0939A01B0939B0110925101109250015A
:100210000895CF93DF93EC0160E088E00E943110F5
:10022000662777276C1B7D0B8AE0DF91CF910C94BA
:10023000700FCF93DF93EC0160E087E00E943110F4
:10024000662777276C1B7D0B89E0DF91CF910C949B
:10025000700F1F920F920FB60F9211242F933F939E
:100260004F935F936F937F938F939F93AF93BF93BE
:10027000EF93FF9380914E0190914F0101969093DF
:100280004F0180934E010A9709F079C08091A00137
:100290009091A10197FF13C08091920190919301D9
:1002A00091958195910990938B0180938A0180911A
:1002B0009001909191019195819591090EC0892BA2
:1002C00081F0809192019091930190938B018093A2
:1002D0008A0180919001909191019093890180937E
:1002E000880160918A0170918B014AE050E08AEEAA
:1002F00092E00E94A81366E071E08AEE92E00E940C
:10030000D612409198015091990160919A01709193
:100310009B012AE030E08AEE92E00E945E136AE0E0
:1003200071E08AEE92E00E94D6126091880170918D
:1003300089014AE050E08AEE92E00E94A81366E04C
:1003400071E08AEE92E00E94D612409194015091A1
:10035000950160919601709197012AE030E08AEE54
:1003600092E00E94B01310929301109292011092A9
:1003700091011092900110924F0110924E01FF9145
:10038000EF91BF91AF919F918F917F916F915F910D
:100390004F913F912F910F900FBE0F901F90189586
:1003A000CF93DF93EC0197FD0DC061E088E00E94E0
:1003B00031106FEF70E06C1B7D0B8AE0DF91CF9105
:1003C0000C94700FDF91CF910C940901CF93DF93C0
:1003D000EC0197FD0DC061E087E00E9431106FEFE6
:1003E00070E06C1B7D0B89E0DF91CF910C94700F56
:1003F000DF91CF910C94190120E046E065E08AEB93
:1004000091E00E947E0A6DE171E084EB91E00C9432
:10041000301484EB91E00E94C2138AEB91E00C94BB
:10042000250AEF92FF920F931F93CF93DF93C82F6C
:100430008B017A0168E670E08DE192E00E94F60B94
:10044000E0911D02F0911E020190F081E02D6C2FD1
:100450008DE192E00995019701F560E08DE192E070
:100460000E94F80B282F30E021153105C1F421E05E
:1004700030E0A70168E670E08DE192E00E94EA0BAF
:10048000E80100E010E08DE192E00E943C0B892B36
:1004900041F00E151F0574F004C086EF09C0C901B4
:1004A00011C00E151F0519F480E090E00BC085EF18
:1004B0009FEF08C00F5F1F4F8DE192E00E94440B39
:1004C0008993E1CFDF91CF911F910F91FF90EF9032
:1004D0000895CF93DF93EC014EE050E0BC018BE335
:1004E00090E00E94110228813981388329832A8172
:1004F0003B813A832B832C813D813C832D832E814C
:100500003F813E832F8328853985388729872A852F
:100510003B853A872B872C853D853C872D87DF914E
:10052000CF9108952F923F924F925F926F927F9258
:100530008F929F92AF92BF92CF92DF92EF92FF92F3
:100540000F931F93CF93DF93CDB7DEB76B970FB6A3
:10055000F894DEBF0FBECDBFCE0101961C010E94F4
:1005600069020AE010E01F8A188E198E1A8E1B8A03
:100570001C8A1D8A1E8A1F86188A198A1A8AC12C0B
:10058000D12C760146015701260137012B8E232CF1
:100590008B8D922D0E94690269817A81882777FD6F
:1005A0008095982F0E94D5159B01AC01C301B20123
:1005B0000E94AA142B013C016B817C81882777FD66
:1005C0008095982F0E94D5159B01AC01C501B401FF
:1005D0000E94AA144B015C016D817E81882777FD02
:1005E0008095982F0E94D5159B01AC01C701B601DB
:1005F0000E94AA146B017C0169857A85882777FDA2
:100600008095982F0E94D5159B01AC016F85788944
:1006100089899A890E94AA146F87788B898B9A8B13
:100620006B857C85882777FD8095982F0E94D5154E
:100630009B01AC016B897C898D899E890E94AA14DB
:100640006B8B7C8B8D8B9E8B6D857E85882777FD54
:100650008095982F0E94D5159B01AC016F89788DEC
:10066000898D9A8D0E94AA146F8B788F898F9A8FAB
:1006700064E670E080E090E00E940D0F01501109E7
:1006800009F086CF20E030E040E251E4C301B2013E
:100690000E943A15609368017093690180936A0122
:1006A00090936B0120E030E040E251E4C501B401D9
:1006B0000E943A156093640170936501809366010E
:1006C0009093670120E030E040E251E4C701B601B9
:1006D0000E943A15609360017093610180936201FA
:1006E0009093630120E030E040E251E46F85788927
:1006F00089899A890E943A1560935C0170935D0123
:1007000080935E0190935F0120E030E040E251E48D
:100710006B897C898D899E890E943A156093580166
:100720007093590180935A0190935B0120E030E06F
:1007300040E251E46F89788D898D9A8D0E943A1537
:100740006093540170935501809356019093570123
:100750006B960FB6F894DEBF0FBECDBFDF91CF9181
:100760001F910F91FF90EF90DF90CF90BF90AF90CF
:100770009F908F907F906F905F904F903F902F90C1
:1007800008954F925F926F927F928F929F92AF9255
:10079000BF92CF92DF92EF92FF920F931F93CF936E
:1007A000DF93CDB7DEB7AE970FB6F894DEBF0FBEBE
:1007B000CDBF6DE171E084EB91E00E9446140AE048
:1007C0008AEB91E00E944509892B89F18AEB91E03F
:1007D0000E94B808182F833271F484EB91E00E94D4
:1007E0009D14069F9001079F300D11243093B30193
:1007F0002093B20116C08436A1F484EB91E00E94EC
:100800009D147093B1016093B0016EE071E08AEEC7
:1008100092E00E94D61264EB71E08AEE92E00E94B0
:10082000F312612F84EB91E00E948A14C9CFCE01AC
:1008300001960E9469020E94DE0E6F87788B898B79
:100840009A8B69817A81882777FD8095982F0E94FD
:10085000D5154B015C016B817C81882777FD8095E4
:10086000982F0E94D5156B017C016D817E818827B0
:1008700077FD8095982F0E94D5159B01AC010E94B1
:10088000B5162B013C01A7019601C701B6010E94D4
:10089000B516A30192010E94AA140E941C179B0185
:1008A000AC01C501B40190580E943A150E940E1582
:1008B0006F8B788F898F9A8FA5019401C501B40140
:1008C0000E94B516A30192010E94AA140E941C174F
:1008D0009B01AC01C701B6010E943A150E940E159A
:1008E0006B8F7C8F8D8F9E8F80918401909185017D
:1008F000A0918601B09187012F85388949895A894D
:10090000281B390B4A0B5B0BCA01B9010E94D31596
:1009100020E030E04AE754E40E943A152B013C0104
:1009200069857A85882777FD8095982F0E94D5154F
:1009300020915C0130915D0140915E0150915F0119
:100940000E94A91420E030E043E053E40E943A15ED
:10095000A30192010E94B5166B017C016B857C8519
:10096000882777FD8095982F0E94D51520915801F2
:100970003091590140915A0150915B010E94A91494
:1009800020E030E043E053E40E943A15A3019201D5
:100990000E94B5166B8B7C8B8D8B9E8B6D857E85B7
:1009A000882777FD8095982F0E94D51520915401B6
:1009B0003091550140915601509157010E94A91460
:1009C00020E030E043E053E40E943A15A301920195
:1009D0000E94B5164B015C0120917801309179019C
:1009E00040917A0150917B010E94AA146F8F78A3E5
:1009F00089A39AA3209174013091750140917601E9
:100A000050917701C701B6010E94AA146BA37CA381
:100A10008DA39EA3209170013091710140917201CC
:100A2000509173016B897C898D899E890E94AA14DB
:100A30006FA378A789A79AA720916C0130916D01C7
:100A400040916E0150916F01C501B4010E94AA143A
:100A50006BA77CA78DA79EA7209180013091810173
:100A60004091820150918301C701B6010E94AA14EE
:100A70002EEE3CE74FE75FE30E94B5166B017C0169
:100A80002DEE3EE245E652E46B8D7C8D8D8D9E8D84
:100A90000E94B51620E032E143E05BE30E94B51608
:100AA0009B01AC01C701B6010E94AA146B017C0135
:100AB00020917C0130917D0140917E0150917F0118
:100AC0006B897C898D899E890E94AA142EEE3CE751
:100AD0004FE75FE30E94B5164B015C012DEE3EE24D
:100AE00045E652E46F89788D898D9A8D0E94B516FE
:100AF00020E032E143E05BE30E94B5169B01AC01CC
:100B0000C501B4010E94AA142F85388949895A89E0
:100B1000209384013093850140938601509387018F
:100B2000C0928001D0928101E0928201F092830113
:100B300060937C0170937D0180937E0190937F018F
:100B40008F8D98A1A9A1BAA1809378019093790182
:100B5000A0937A01B0937B012BA13CA14DA15EA192
:100B6000209374013093750140937601509377017F
:100B70008FA198A5A9A5BAA5809370019093710142
:100B8000A0937201B09373012BA53CA54DA55EA562
:100B900020936C0130936D0140936E0150936F016F
:100BA00020E030E040E752E4C701B6010E94AA14F9
:100BB00020E030E048EC52E40E94B5160E94A215F5
:100BC0009B01613E4EE274070CF0E1C177FD0BC062
:100BD000693358E175074CF4283A86E138072CF060
:100BE00008EC10E004C020E030E000EF10E0E090FE
:100BF000B001F090B101E114F10429F41092AF01B9
:100C00001092AE011CC091E0E916F10419F48CE0D9
:100C10009EEF11C0A2E0EA16F10419F484EF91E00E
:100C20000AC0B3E0EB16F10421F044E0E416F1044D
:100C300031F488E39FEF9093AF018093AE01409130
:100C40008801509189014330510554F0CA01880F41
:100C5000991F840F951FAA2797FDA095BA2F0EC044
:100C60004E3F8FEF580794F4BA01660F771F640F59
:100C7000751FCB01AA2797FDA095BA2F80938C01F1
:100C800090938D01A0938E01B0938F014D5E5F4FC5
:100C90004732510540F410928C0110928D01109250
:100CA0008E0110928F016091B2017091B301620FB9
:100CB000731F8091AE019091AF01680F791F882753
:100CC00077FD8095982F80908C0190908D01A09059
:100CD0008E01B0908F01680D791D8A1D9B1D605794
:100CE0007741810991090E94D5154B015C01609300
:100CF000A6017093A7018093A8019093A901A30175
:100D000092010E94B5162091A2013091A301409159
:100D1000A4015091A5010E94AA146F87788B898B3A
:100D20009A8B6093A2017093A3018093A401909386
:100D3000A50120919C0130919D0140919E0150910F
:100D40009F01C501B4010E94A914A30192010E9450
:100D50003A152B013C016093AA017093AB0180937B
:100D6000AC019093AD0120E030EC4AE054E46F8593
:100D7000788989899A890E94AA16181664F480E0F5
:100D800090ECAAE0B4E48093A2019093A301A09315
:100D9000A401B093A50120E030EC4AE054EC60914E
:100DA000A2017091A3018091A4019091A5010E94DC
:100DB000361587FF0CC080E090ECAAE0B4EC80937D
:100DC000A2019093A301A093A401B093A50121EDEA
:100DD00032E24BE15EE3C501B4010E94B5164B015E
:100DE0005C0129E832ED4EED5AE3C301B2010E94E5
:100DF000B5169B01AC01C501B4010E94AA144B01B8
:100E00005C012CEE31E548E15FE36091A201709155
:100E1000A3018091A4019091A5010E94B5169B01A8
:100E2000AC01C501B4010E94AA140E94A2150617C4
:100E300017072CF07093A1016093A00104C01093D8
:100E4000A1010093A0011195019511098091A001C4
:100E50009091A1018017910724F41093A1010093B0
:100E6000A00193E0E916F104E8F48091A0019091CB
:100E7000A10197FF08C00E94E6018091A001909116
:100E8000A1010E94D0018091A0019091A1011816AA
:100E9000190644F40E94E6018091A0019091A101FD
:100EA0000E94D0018091B0019091B101039709F5A2
:100EB0008091A0019091A10197FF0AC086EF9FEF5A
:100EC0000E9419018091A0019091A1010E94D0017E
:100ED0008091A0019091A1011816190654F486EF93
:100EE0009FEF0E9419018091A0019091A1010E94A1
:100EF000D0018091B0019091B101049709F58091E2
:100F0000A0019091A10197FF0AC086EF9FEF0E9478
:100F100009018091A0019091A1010E94E6018091B8
:100F2000A0019091A1011816190654F486EF9FEFC5
:100F30000E9409018091A0019091A1010E94E60107
:100F40008091A6019091A701A091A801B091A9015B
:100F500080939C0190939D01A0939E01B0939F016B
:100F6000AE960FB6F894DEBF0FBECDBFDF91CF9126
:100F70001F910F91FF90EF90DF90CF90BF90AF90B7
:100F80009F908F907F906F905F904F90089520EE8C
:100F90003EE22BCEFF920F931F93CF93DF93F82E59
:100FA0008B01EA0168E670E08DE192E00E94F60BA9
:100FB000E0911D02F0911E020190F081E02D6F2D55
:100FC0008DE192E00995019781F4AE01B8018DE1C0
:100FD00092E00E94670B8C179D0751F461E08DE150
:100FE00092E00E94F80B90E005C08CEE9FEF02C0EB
:100FF0008BEE9FEFDF91CF911F910F91FF9008959E
:10100000CF93DF931F92CDB7DEB7698341E050E005
:10101000BE016F5F7F4F0E94CA070F90DF91CF9193
:101020000895CF93DF931F92CDB7DEB761E089E0DB
:101030000E94F80F61E08AE00E94F80F61E087E00B
:101040000E94F80F61E088E00E94F80F61E08DE0F7
:101050000E94F80F60E082E00E94F80F60E083E0F9
:101060000E94F80F80E88093B00087E08093B10081
:1010700081E0809370001092B600789426E040E002
:1010800052EC61E070E08AEE92E00E94731140E061
:101090005BE460E070E08AEB91E00E94AE0A43E01E
:1010A00050E066EA70E080E00E941A0E43E050E0F3
:1010B0006CED70E081E00E941A0E8DE192E00E94DA
:1010C000D30B41E050E0BE016F5F7F4F85E790E0BA
:1010D0000E94110241E050E0BE016F5F7F4F8CE63D
:1010E00090E00E94110260E08BE690E00E94000810
:1010F0000E9492020E94DE0E60938401709385012B
:101100008093860190938701109280011092810153
:10111000109282011092830110927C0110927D0145
:1011200010927E0110927F01109278011092790145
:1011300010927A0110927B01109274011092750145
:101140001092760110927701109270011092710145
:10115000109272011092730110926C0110926D0145
:1011600010926E0110926F010F90DF91CF91089550
:1011700020911B0230911C0228173907B9F4909175
:10118000D9018091DA01981789F0E091D901F0E056
:10119000E552FE4F80812091D90130E02F5F3F4F13
:1011A0002F7333272093D90190E008958FEF9FEF9D
:1011B00008951F93CF93DF93DC015C968D919C91F2
:1011C0005D97009749F481E090E013969C938E938D
:1011D000129780E090E03BC05196ED91FC915297C0
:1011E00050962C915097322F30951FB75E964C91A8
:1011F0005E9741FB772770F941FD6095F894408137
:10120000772311F0422B01C043234083EC01219747
:10121000F1F748E0508160FF02C0522B01C0532318
:101220005083EC012197F1F76695415099F7808141
:10123000772311F0832301C0822B80831FBF5C962C
:101240008D919C915D970197F1F781E090E0DF919E
:10125000CF911F91089520911B0230911C022817F5
:10126000390781F49091D9018091DA01981751F0F2
:10127000E091D901F0E0E552FE4F8081992787FD8A
:10128000909508958FEF9FEF089520911B02309164
:101290001C022817390771F48091DA012091D901D5
:1012A00090E0805C9F4F821B910960E470E00E9497
:1012B0007217089580E090E0089520911B0230910C
:1012C0001C022817390739F48FB7F8941092DA0105
:1012D0001092D9018FBF0895E0911B02F0911C027A
:1012E000E817F90769F4A389B4899C9185898095E9
:1012F00089238C9310921C0210921B0281E00895A6
:1013000080E00895CF93DF93EC018A8D9B8D892B2C
:10131000F1F080911B0290911C028C179D07B9F08F
:10132000009711F00E946C098E8D8E7F8E8F109227
:10133000DA011092D901D0931C02C0931B02EB89F1
:10134000FC8980819D89892B808381E001C080E0B8
:10135000DF91CF9108951F920F920FB60F92112433
:101360002F933F934F935F936F937F938F939F93AD
:10137000AF93BF93EF93FF93E0911B02F0911C0298
:10138000309709F451C0868DA685B785958581FF74
:1013900004C08C91892329F447C08C91892309F0DA
:1013A00043C0A389B4899C918589809589238C93B6
:1013B000868997890197F1F7208D318DA685B785AC
:1013C000758558E040E0C9010197F1F7842F90E05E
:1013D00095958795482F6C91672309F04068515087
:1013E00091F7868D81FD40958091DA0190E001961C
:1013F0008F7399272091D901281749F0A091DA011C
:10140000B0E0A552BE4F4C938093DA0103C0868DA5
:101410008160868F828D938D0197F1F7A389B489BE
:101420008C919589892B8C93FF91EF91BF91AF910E
:101430009F918F917F916F915F914F913F912F91EC
:101440000F900FBE0F901F90189522E231E0FC0123
:10145000318320830C946C091F93CF93DF93EC01AD
:10146000162F6E8D6695617081E06827812F0E942E
:10147000311061E0812F0E94F80F812F90E0FC0174
:10148000E655FF4FE491E88BFC01E254FF4FE491F5
:10149000F0E0EE0FFF1FE452FF4F859194919A8B7D
:1014A000898BDF91CF911F9108951F93CF93DF9385
:1014B000EC01162F60E0812F0E94F80F8E8D81FDC8
:1014C00004C061E0812F0E9431101C87812F90E0C1
:1014D000FC01E655FF4FE491ED87FC01E254FF4F1C
:1014E000E491F0E0EE0FFF1FEE52FF4F85919491D3
:1014F0009F878E87DF91CF911F910895FF920F9361
:101500001F93CF93DF93EC01F62E522F1B821A828A
:1015100008EE13E020E030E00C831D832E833F8330
:1015200082E291E0998388831F8A1E8A198E188E21
:101530001B8E1A8E1D8E1C8E8E8D8E7F50FB81F918
:101540008E8F642FCE010E942C0A6F2DCE01DF9169
:10155000CF911F910F91FF900C94550ACF93DF9379
:10156000EC019A01AB011B8E1A8E198E188E1F8A00
:101570001E8A60E079E08DE390E00E94A817C9011F
:101580002430310520F0B9016350710902C061E0D7
:1015900070E07D8F6C8FEC85E63108F068C0B90192
:1015A000769567956431710518F06351710902C031
:1015B00061E070E07F8B6E8B069718F0C90105978C
:1015C00002C081E090E0998F888FC901880F991F30
:1015D000820F931F96958795969587958D309105E7
:1015E00010F00C9702C081E090E09B8F8A8F2091D1
:1015F0006800E83050F091E0EE3008F490E081E0CF
:1016000001C0880F9A95EAF701C084E0822B80938D
:1016100068002C85283038F02E3040F0263148F410
:101620008CE690E008C08DE690E005C08BE690E087
:1016300002C080E090E09C8B8B8B283030F481E0FE
:1016400001C0880F2A95EAF70DC0822F90E02E3056
:1016500010F4089701C00E9791E001C0990F8A9588
:10166000EAF7892F8D8B8C8D9D8D0197F1F7CE0137
:10167000DF91CF910C94820980914D0290E02091EE
:101680004E02821B9109089520914E0280914D02D5
:10169000281750F4E22FF0E0E15BFD4F808190E0ED
:1016A0002F5F20934E0208958FEF9FEF0895E091F2
:1016B0004E0280914D02E81730F4F0E0E15BFD4FFF
:1016C000808190E008958FEF9FEF08950895CF9265
:1016D000DF92EF92FF920F931F93CF93DF937C01E2
:1016E000CB018A0120912902222389F0EB016B01B1
:1016F000C40ED51ECC15DD0569F06991D701ED91B9
:10170000FC910190F081E02DC7010995F3CF642F82
:101710000E94C40CC801DF91CF911F910F91FF90DF
:10172000EF90DF90CF900895CF93DF931F92CDB7C6
:10173000DEB76983209129022223D1F020912A0269
:10174000203240F021E030E0FC013383228380E04E
:1017500090E015C080912B02E82FF0E0E45DFD4F92
:10176000998190838F5F80932B0280932A0205C01A
:1017700061E0CE0101960E94C40C81E090E00F90E0
:10178000DF91CF910895FC011382128248EE53E05D
:1017900060E070E0448355836683778382E391E061
:1017A00091838083089510924E0210924D02109200
:1017B0002B0210922A020C940F0C862F413208F053
:1017C00040E26FE472E00E942D0C10924E02809372
:1017D0004D0208950C94DD0B81E080932902609303
:1017E0004C0210922B0210922A0208950C94EC0BDA
:1017F0000F93062F21E040912A026CE272E0809163
:101800004C020E94710C10922B0210922A0210922C
:1018100029020F9108958DE192E00C94C30B109270
:10182000DC0281E08093DA021092D90261E082E169
:101830000E94311061E083E10E943110E9EBF0E099
:1018400080818E7F808380818D7F808388E48093F8
:10185000B80085E48093BC000895413208F03FC091
:101860009091DC029111FCCF91E09093DC022093E7
:10187000DA022FEF20936F021092B402240F20930C
:10188000B3029093DB029091DB02880F892B809347
:10189000DB028091D902813041F41092D90280910B
:1018A000DB028093BB0085EC01C085EE8093BC0019
:1018B0008091DC028130E1F38091B402841710F44E
:1018C0004091B40225EB32E0FB01D9018A2F821B43
:1018D000841718F48D918193F9CF842F089580E0B7
:1018E00008950F93413208F046C09091DC029111A7
:1018F000FCCF92E09093DC020093DA029FEF90938A
:101900006F021092B4024093B302FB0165EB72E0E8
:10191000DB019A2F961B941718F491919D93F9CFA0
:101920001092DB029091DB02880F892B8093DB02FF
:101930008091D902813041F41092D9028091DB026A
:101940008093BB0085EC01C085EE8093BC00222310
:1019500021F08091DC028230E1F380916F028F3FB1
:1019600061F080916F02803251F080916F0280337C
:1019700041F483E007C081E005C080E003C082E05D
:1019800001C084E00F910895613298F42091DC0247
:10199000243089F460939102FC0183E992E0DC0138
:1019A0002A2F281B261718F421912D93F9CF80E0B8
:1019B000089581E0089582E0089585ED8093BC004C
:1019C0008091BC0084FDFCCF1092DC02089585EC70
:1019D0008093BC001092DC0208951F920F920FB604
:1019E0000F9211242F933F934F935F936F937F93A5
:1019F0008F939F93AF93BF93EF93FF938091B90021
:101A0000887F803609F49CC068F5883209F45BC091
:101A100090F4803109F454C038F4882309F4F5C0F7
:101A2000883009F44DC0F5C0883109F44CC08032CB
:101A300009F45DC0EEC0803409F468C048F4803316
:101A400009F455C0883309F0E4C080936F02A8C040
:101A5000803509F44FC0883509F45DC0883409F039
:101A6000D8C0D5C0883909F4C6C0A8F4883709F4AD
:101A700067C038F4883609F463C0803709F460C061
:101A8000C8C0883809F4B7C0803909F45FC080380D
:101A900009F0BFC05BC0803B09F485C038F4803AD0
:101AA00009F466C0883A09F47EC0B3C0803C09F4EA
:101AB000A6C0883C09F4A3C0883B09F489C0A9C02A
:101AC0008091DB0210C09091B4028091B30298170C
:101AD00070F5E091B40281E08E0F8093B402F0E0E3
:101AE000EB54FD4F80818093BB0085EC85C08093D3
:101AF0006F028DC0E091B40281E08E0F8093B4023A
:101B00008091BB00F0E0EB54FD4F80839091B402D4
:101B10008091B3026DC0E091B40281E08E0F80939A
:101B2000B4028091BB00F0E0EB54FD4F80838091C4
:101B3000DA0281116CC081E08093D90284EA60C02E
:101B400083E08093DC0210927002CFCF809170020C
:101B5000803208F050C0E091700281E08E0F8093D7
:101B600070028091BB00F0E0EF58FD4F8083BDCF45
:101B700080917002803230F4E0917002F0E0EF5812
:101B8000FD4F10820E94DD0C6091700270E0E091C8
:101B9000D502F091D60281E792E009951092700289
:101BA0000E94E70C36C084E08093DC02109292021F
:101BB00010929102E091D702F091D802099580919C
:101BC0009102811105C081E08093910210929302ED
:101BD000E091920281E08E0F80939202F0E0ED5648
:101BE000FD4F80818093BB00909192028091910281
:101BF000981708F47ACF85E88093BC000AC085EC7A
:101C00008093BC001092DC0204C010926F020E940C
:101C1000DD0CFF91EF91BF91AF919F918F917F91DB
:101C20006F915F914F913F912F910F900FBE0F9049
:101C30001F9018958230E8F4E82FF0E0EE0FFF1FB8
:101C4000E352FD4F71836083813041F080916900E0
:101C50008C7F842B80936900E89A089580916900B5
:101C6000440F551F440F551F837F842B80936900B9
:101C7000E99A08951F920F920FB60F9211242F9395
:101C80003F934F935F936F937F938F939F93AF9304
:101C9000BF93EF93FF938091DD029091DE02892B39
:101CA00029F0E091DD02F091DE020995FF91EF91BC
:101CB000BF91AF919F918F917F916F915F914F9164
:101CC0003F912F910F900FBE0F901F9018951F926C
:101CD0000F920FB60F9211242F933F934F935F9360
:101CE0006F937F938F939F93AF93BF93EF93FF93E4
:101CF0008091DF029091E002892B29F0E091DF02D0
:101D0000F091E0020995FF91EF91BF91AF919F9102
:101D10008F917F916F915F914F913F912F910F9094
:101D20000FBE0F901F9018951F920F920FB60F9233
:101D300011242F933F938F939F93AF93BF938091E1
:101D4000E2029091E302A091E402B091E5023091A9
:101D5000E10223E0230F2D3720F40196A11DB11DD0
:101D600005C026E8230F0296A11DB11D2093E102B4
:101D70008093E2029093E302A093E402B093E50221
:101D80008091E6029091E702A091E802B091E90209
:101D90000196A11DB11D8093E6029093E702A093E6
:101DA000E802B093E902BF91AF919F918F913F916B
:101DB0002F910F900FBE0F901F9018952FB7F8948A
:101DC0006091E2027091E3028091E4029091E50259
:101DD0002FBF08953FB7F8948091E6029091E702F3
:101DE000A091E802B091E90226B5A89B05C02F3F5B
:101DF00019F00196A11DB11D3FBF6627782F892FCD
:101E00009A2F620F711D811D911D42E0660F771F91
:101E1000881F991F4A95D1F70895CF92DF92EF92CC
:101E2000FF92CF93DF936B017C010E94EA0EEB01DE
:101E3000C114D104E104F10489F00E94A8140E94A5
:101E4000EA0E6C1B7D0B683E734090F381E0C81A6C
:101E5000D108E108F108C851DC4FEACFDF91CF91FA
:101E6000FF90EF90DF90CF900895789484B58260D2
:101E700084BD84B5816084BD85B5826085BD85B52E
:101E8000816085BDEEE6F0E0808181608083E1E8DD
:101E9000F0E0108280818260808380818160808315
:101EA000E0E8F0E0808181608083E1EBF0E0808118
:101EB00084608083E0EBF0E0808181608083EAE7EA
:101EC000F0E0808184608083808182608083808173
:101ED000816080838081806880831092C100089532
:101EE0001F93CF93DF93182FEB0161E00E94F80F4F
:101EF000209711F460E004C0CF3FD10539F461E0D0
:101F0000812FDF91CF911F910C943110E12FF0E0E0
:101F1000EA56FF4FE491E330F9F048F4E130B9F0CC
:101F2000E230A1F584B5806284BDC8BD34C0E7301D
:101F3000E9F0E83019F1E43049F5809180008062E1
:101F400080938000D0938B00C0938A0024C084B516
:101F5000806884BDC7BD1FC0809180008068809369
:101F60008000D0938900C093880015C08091B00094
:101F700080688093B000C093B3000DC08091B00022
:101F800080628093B000C093B40005C0C038D10512
:101F90000CF0B5CFAFCFDF91CF911F910895833073
:101FA00081F028F4813099F08230A1F008958730D3
:101FB000A9F08830B9F08430D1F4809180008F7D11
:101FC00003C0809180008F7780938000089584B54E
:101FD0008F7702C084B58F7D84BD08958091B00055
:101FE0008F7703C08091B0008F7D8093B0000895FB
:101FF000CF93DF9390E0FC01E655FF4F2491FC0165
:10200000E254FF4F8491882349F190E0880F991F93
:10201000FC01EA51FF4FA591B49184529F4FFC01FE
:10202000C591D4919FB7611108C0F8948C91209507
:1020300082238C93888182230AC0623051F4F89401
:102040008C91322F309583238C938881822B8883C7
:1020500004C0F8948C91822B8C939FBFDF91CF9119
:1020600008950F931F93CF93DF931F92CDB7DEB7E1
:10207000282F30E0F901EA56FF4F8491F901E65527
:10208000FF4F1491F901E254FF4F04910023C9F06E
:10209000882321F069830E94CF0F6981E02FF0E04F
:1020A000EE0FFF1FE452FF4FA591B4919FB7F89434
:1020B0008C91611103C01095812301C0812B8C93F9
:1020C0009FBF0F90DF91CF911F910F910895CF93F4
:1020D000DF93282F30E0F901EA56FF4F8491F90190
:1020E000E655FF4FD491F901E254FF4FC491CC2340
:1020F00091F081110E94CF0FEC2FF0E0EE0FFF1F47
:10210000EE52FF4FA591B4912C912D2381E090E0E8
:1021100021F480E002C080E090E0DF91CF9108954B
:10212000FC01818D228D90E0805C9F4F821B910984
:102130008F7399270895FC01918D828D981731F046
:10214000828DE80FF11D858D90E008958FEF9FEF50
:102150000895FC01918D828D981761F0828DDF01C9
:10216000A80FB11D5D968C91928D9F5F9F73928F8A
:1021700090E008958FEF9FEF08958DE292E1892B13
:1021800049F080E090E0892B29F00E942D12811106
:102190000C9400000895FC01848DDF01A80FB11D8F
:1021A000A35ABF4F2C91848D90E001968F7399278D
:1021B000848FA689B7892C93A089B1898C9180647A
:1021C0008C93938D848D981306C00288F389E02D3B
:1021D00080818F7D80830895CF93DF93EC01888D7C
:1021E0008823C9F0EA89FB89808185FD05C0A8891B
:1021F000B9898C9186FD0FC00FB607FCF5CF8081A1
:1022000085FFF2CFA889B9898C9185FFEDCFCE01EA
:102210000E94CB10E7CFDF91CF910895CF92DF924C
:10222000FF920F931F93CF93DF931F92CDB7DEB72B
:102230006C01DC015B969C915B975C968C915C9742
:10224000981307C05096ED91FC915197808185FDC0
:1022500032C0F601038D10E00F5F1F4F0F7311277F
:10226000F02EF601848DF81211C00FB607FCF9CFDD
:10227000D6015096ED91FC915197808185FFF1CF69
:10228000C60169830E94CB106981EBCF838DE80F73
:10229000F11DE35AFF4F6083D6015B960C935B9769
:1022A0005296ED91FC91539780818062808381E00A
:1022B00058968C930DC0D6015696ED91FC91579788
:1022C00060835096ED91FC9151978081806480836A
:1022D00081E090E00F90DF91CF911F910F91FF90DF
:1022E000DF90CF900895BF92CF92DF92EF92FF924E
:1022F000CF93DF93EC016A017B01B22EE889F98963
:1023000082E08083411581EE580761057105A1F0D7
:1023100060E079E08DE390E0A70196010E948617C6
:10232000215031094109510956954795379527950F
:10233000211580E1380798F0E889F989108260E872
:1023400074E88EE190E0A70196010E948617215063
:102350003109410951095695479537952795EC85DF
:10236000FD853083EE85FF852083188EEC89FD89FD
:10237000B082EA89FB89808180618083EA89FB8958
:10238000808188608083EA89FB898081806880837E
:10239000EA89FB8980818F7D8083DF91CF91FF90D7
:1023A000EF90DF90CF90BF9008951F920F920FB6DD
:1023B0000F9211242F938F939F93EF93FF93E091AC
:1023C000FA02F091FB028081E0910003F091010399
:1023D00082FD12C09081809103038F5F8F732091E3
:1023E0000403821751F0E0910303F0E0E651FD4F42
:1023F000958F8093030301C08081FF91EF919F919E
:102400008F912F910F900FBE0F901F9018951F92D4
:102410000F920FB60F9211242F933F934F935F9318
:102420006F937F938F939F93AF93BF93EF93FF939C
:102430008AEE92E00E94CB10FF91EF91BF91AF9195
:102440009F918F917F916F915F914F913F912F91CC
:102450000F900FBE0F901F9018958AEE92E00E9489
:10246000901021E0892B09F420E0822F089510922A
:10247000ED021092EC0288EE93E0A0E0B0E08093D1
:10248000EE029093EF02A093F002B093F10282E487
:1024900091E09093EB028093EA0285EC90E09093B8
:1024A000F7028093F60284EC90E09093F902809317
:1024B000F80280EC90E09093FB028093FA0281ECAA
:1024C00090E09093FD028093FC0282EC90E0909368
:1024D000FF028093FE0286EC90E0909301038093CC
:1024E000000310920303109204031092050310924C
:1024F0000603089508950E94350F0E947A120E94E3
:102500001108CDEBD0E10E94C1032097E1F30E94B6
:10251000BD10F9CFCF92DF92EF92FF920F931F93EE
:10252000CF93DF936C017A01EB01E60EF71E00E01A
:1025300010E0CE15DF0561F06991D601ED91FC91B7
:102540000190F081E02DC6010995080F191FF1CF08
:10255000C801DF91CF911F910F91FF90EF90DF9015
:10256000CF9008956115710581F0DB010D90002079
:10257000E9F7AD0141505109461B570BDC01ED91C4
:10258000FC910280F381E02D099480E090E00895B1
:10259000DC01ED91FC91DB0114964D915C91159756
:1025A0006D917C910280F381E02D09940C94B2121C
:1025B000DC01ED91FC910190F081E02D09940F93E5
:1025C0001F93CF93DF93EC016DE00E94D8128C0132
:1025D0006AE0CE010E94D812800F911FDF91CF9147
:1025E0001F910F9108950F931F93CF93DF93EC01E9
:1025F0000E94C8128C01CE010E94DF12800F911F31
:10260000DF91CF911F910F9108958F929F92AF927A
:10261000BF92CF92DF92EF92FF920F931F93CF93CF
:10262000DF93CDB7DEB7A1970FB6F894DEBF0FBE2C
:10263000CDBF7C01C42EE52FCB01D22E19A221E003
:102640002D1510F02AE0D22E8E010F5D1F4F8D2C1C
:10265000912CA12CB12C6C2D7E2FA50194010E94F0
:1026600086178C2DD29E80191124015011098A30B1
:1026700014F4805D01C0895CF80180832115310567
:102680004105510521F0C22EE32FCA01E4CFB80164
:10269000C7010E94B212A1960FB6F894DEBF0FBE1A
:1026A000CDBFDF91CF911F910F91FF90EF90DF9001
:1026B000CF90BF90AF909F908F900895CF92DF9270
:1026C000EF92FF920F931F93CF93DF93EC016A0178
:1026D0007B012115310579F4E881F9810190F081C0
:1026E000E02D642FDF91CF911F910F91FF90EF901C
:1026F000DF90CF9009942A303105E9F477FF1AC0B2
:102700006DE20E94D8128C0144275527BA014C195A
:102710005D096E097F092AE0CE010E940513800F32
:10272000911FDF91CF911F910F91FF90EF90DF905C
:10273000CF9008952AE0B701A601CE01DF91CF9195
:102740001F910F91FF90EF90DF90CF900C940513A5
:102750009A01AB01662757FD6095762F0C945E13A6
:102760000F931F93CF93DF93EC010E945E138C01B4
:10277000CE010E94DF12800F911FDF91CF911F9138
:102780000F910895FC01808191810C947918CF9369
:10279000DF93EC0188819981009711F00E947918EC
:1027A000198218821D821C821B821A82DF91CF91AE
:1027B00008950F931F93CF93DF93EC018B016F5F0D
:1027C0007F4F888199810E940819009731F0998381
:1027D00088831B830A8381E001C080E0DF91CF9171
:1027E0001F910F910895CF93DF93EC018881998118
:1027F000892B29F08A819B818617970760F4CE0187
:102800000E94D913882341F08C819D81892B19F472
:10281000E881F981108281E0DF91CF910895EF92F4
:10282000FF920F931F93CF93DF93EC017B018A01FB
:10283000BA010E94F313811104C0CE010E94C71394
:1028400007C01D830C83B701888199810E94021AF9
:10285000CE01DF91CF911F910F91FF90EF900895DE
:10286000FC0111821082138212821582148261157A
:10287000710559F0FB0101900020E9F7AF014150CB
:102880005109461B570B0C940F140895CF93DF93F7
:10289000EC016115710561F0FB0101900020E9F781
:1028A000AF0141505109461B570B0E940F1402C043
:1028B0000E94C713CE01DF91CF910895EF92FF924E
:1028C0000F931F93CF93DF93EC017B010C811D814C
:1028D0006115710511F480E016C04115510591F0A4
:1028E000040F151FB8010E94F3138823A1F3288158
:1028F00039818C819D81B701820F931F0E94021A3A
:102900001D830C8381E0DF91CF911F910F91FF9088
:10291000EF900895CF93DF9300D0CDB7DEB76983F2
:102920001A8241E050E0BE016F5F7F4F0E945E144B
:102930000F900F90DF91CF910895FC0180819181DC
:10294000009711F00C94D21960E070E0CB0108956B
:1029500008955058BB27AA270ED0C2C1B3D130F07A
:10296000B8D120F031F49F3F11F41EF483C10EF46E
:10297000E095E7FB79C1E92FC4D180F3BA1762076C
:1029800073078407950718F071F49EF5DCC10EF407
:10299000E0950B2EBA2FA02D0B01B90190010C016F
:1029A000CA01A0011124FF27591B99F0593F50F487
:1029B000503E68F11A16F040A22F232F342F4427DF
:1029C000585FF3CF469537952795A795F0405395D7
:1029D000C9F77EF41F16BA0B620B730B840BBAF0A7
:1029E0009150A1F0FF0FBB1F661F771F881FC2F712
:1029F0000EC0BA0F621F731F841F48F48795779526
:102A00006795B795F7959E3F08F0B3CF9395880FDC
:102A100008F09927EE0F979587950895DF93DD27A6
:102A2000B92FBF7740E85FE31616170648075B0724
:102A300010F4D92F93D19F938F937F936F933AD2B2
:102A4000E8E6F0E01AD14CD12F913F914F915F9180
:102A500098D1DD2349F09058A2EA2AED3FE049ECF5
:102A60005FE3D0785D2787DFDF913AC1D9D008F4E2
:102A700081E008950CD034C12CD140F023D130F046
:102A800021F45F3F19F0F0C051115EC1F3C039D19C
:102A900098F39923C9F35523B1F3951B550BBB2725
:102AA000AA2762177307840738F09F5F5F4F220FD2
:102AB000331F441FAA1FA9F333D00E2E3AF0E0E8CB
:102AC00030D091505040E695001CCAF729D0FE2F17
:102AD00027D0660F771F881FBB1F261737074807A9
:102AE000AB07B0E809F0BB0B802DBF01FF2793585F
:102AF0005F4F2AF09E3F510568F0B6C025C15F3F89
:102B0000ECF3983EDCF3869577956795B795F79546
:102B10009F5FC9F7880F911D9695879597F908953E
:102B2000E1E0660F771F881FBB1F621773078407DA
:102B3000BA0720F0621B730B840BBA0BEE1F88F7E9
:102B4000E095089504D06894B111FEC00895E1D0D5
:102B500088F09F5790F0B92F9927B751A0F0D1F086
:102B6000660F771F881F991F1AF0BA95C9F712C010
:102B7000B13081F0E8D0B1E00895E5C0672F782F3B
:102B80008827B85F39F0B93FCCF38695779567957C
:102B9000B395D9F73EF490958095709561957F4FE8
:102BA0008F4F9F4F0895E89409C097FB3EF490958E
:102BB0008095709561957F4F8F4F9F4F9923A9F016
:102BC000F92F96E9BB279395F695879577956795A5
:102BD000B795F111F8CFFAF4BB0F11F460FF1BC0E9
:102BE0006F5F7F4F8F4F9F4F16C0882311F096E97C
:102BF00011C0772321F09EE8872F762F05C066232A
:102C000071F096E8862F70E060E02AF09A95660FE2
:102C1000771F881FDAF7880F9695879597F908959B
:102C2000990F0008550FAA0BE0E8FEEF16161706DD
:102C3000E807F907C0F012161306E407F50798F045
:102C4000621B730B840B950B39F40A2661F0232B5E
:102C5000242B252B21F408950A2609F4A140A695DA
:102C60008FEF811D811D089597F99F6780E870E0BF
:102C700060E008959FEF80EC0895DF93CF931F935A
:102C80000F93FF92EF92DF927B018C01689405C055
:102C9000DA2EEF0176D0FE01E894A59125913591C9
:102CA00045915591AEF3EF0166DEFE019701A80153
:102CB000DA9479F7DF90EF90FF900F911F91CF9109
:102CC000DF91089500240A941616170618060906BF
:102CD000089500240A941216130614060506089592
:102CE000092E0394000C11F4882352F0BB0F40F41A
:102CF000BF2B11F460FF04C06F5F7F4F8F4F9F4F5A
:102D0000089557FD9058440F551F59F05F3F71F0DB
:102D10004795880F97FB991F61F09F3F79F0879542
:102D20000895121613061406551FF2CF4695F1DFCB
:102D300008C0161617061806991FF1CF869571055B
:102D4000610508940895E894BB2766277727CB018F
:102D500097F9089565DF08F48FEF08959B01AC01A2
:102D600060E070E080E89FE385CE0BD0B9CFAADFAA
:102D700028F0AFDF18F0952309F076CF7BCF112430
:102D8000E3CFBFDFA0F3959FD1F3950F50E0551F20
:102D9000629FF001729FBB27F00DB11D639FAA27B0
:102DA000F00DB11DAA1F649F6627B00DA11D661FFF
:102DB000829F2227B00DA11D621F739FB00DA11D20
:102DC000621F839FA00D611D221F749F3327A00DDA
:102DD000611D231F849F600D211D822F762F6A2F76
:102DE00011249F5750408AF0E1F088234AF0EE0FFB
:102DF000FF1FBB1F661F771F881F91505040A9F708
:102E00009E3F510570F030CF9FCF5F3FECF3983E6F
:102E1000DCF3869577956795B795F795E7959F5F6E
:102E2000C1F7FE2B880F911D9695879597F9089508
:102E300011F40EF41FCF41C06CDFD0F39923D9F306
:102E4000CEF39F57550B87FF46D00024A0E640EAFB
:102E5000900180585695979528F4805C660F771FEF
:102E6000881F20F026173707480730F4621B730BC2
:102E7000840B202931294A2BA695179407942025E5
:102E800031254A2758F7660F771F881F20F026172D
:102E90003707480730F4620B730B840B200D311D8C
:102EA000411DA09581F7B901842F9158880F9695FF
:102EB000879508959B01AC0158CF9F3F31F0915009
:102EC00020F4879577956795B795880F911D96950E
:102ED000879597F9089591505040660F771F881F86
:102EE000D2F7089597FB072E16F4009407D077FDCC
:102EF00009D00E94C71707FC05D03EF49095819534
:102F00009F4F0895709561957F4F0895A1E21A2E05
:102F1000AA1BBB1BFD010DC0AA1FBB1FEE1FFF1F7D
:102F2000A217B307E407F50720F0A21BB30BE40BCD
:102F3000F50B661F771F881F991F1A9469F7609514
:102F40007095809590959B01AC01BD01CF010895CE
:102F5000052E97FB1EF400940E94BF1757FD07D063
:102F60000E94861707FC03D04EF40C94BF175095AF
:102F70004095309521953F4F4F4F5F4F0895909565
:102F80008095709561957F4F8F4F9F4F0895AA1B35
:102F9000BB1B51E107C0AA1FBB1FA617B70710F044
:102FA000A61BB70B881F991F5A95A9F78095909576
:102FB000BC01CD010895EE0FFF1F0590F491E02DA7
:102FC0000994CF93DF938230910510F482E090E072
:102FD000E0918903F0918A0320E030E0A0E0B0E0C6
:102FE000309739F14081518148175907B8F0481797
:102FF000590771F482819381109729F013969C935D
:103000008E9312972CC090938A038093890327C0D4
:103010002115310531F04217530718F0A901DB01E2
:1030200001C0EF019A01BD01DF010280F381E02DB3
:10303000D7CF21153105F9F0281B390B2430310584
:1030400080F48A819B816115710521F0FB019383D6
:10305000828304C090938A0380938903FE01329691
:1030600044C0FE01E20FF31F819391932250310976
:10307000398328833AC02091870330918803232B1A
:1030800041F4209102013091030130938803209391
:10309000870320910001309101012115310541F490
:1030A0002DB73EB74091040150910501241B350B0B
:1030B000E0918703F0918803E217F307A0F42E1B39
:1030C0003F0B2817390778F0AC014E5F5F4F24178C
:1030D000350748F04E0F5F1F5093880340938703D6
:1030E0008193919302C0E0E0F0E0CF01DF91CF91B6
:1030F0000895CF93DF93009709F487C0FC013297BE
:1031000013821282C0918903D0918A03209781F49F
:1031100020813181280F391F809187039091880386
:103120008217930779F5F0938803E09387036DC0C6
:10313000DE0120E030E0AE17BF0750F412964D914B
:103140005C9113979D014115510509F1DA01F3CF07
:10315000B383A28340815181840F951F8A179B07F7
:1031600071F48D919C911197840F951F0296918314
:10317000808312968D919C9113979383828321155E
:10318000310529F4F0938A03E09389033EC0D90105
:103190001396FC93EE9312974D915D91A40FB51F7A
:1031A000EA17FB0779F480819181840F951F0296BD
:1031B000D90111969C938E938281938113969C934F
:1031C0008E931297E0E0F0E08A819B81009719F0DE
:1031D000FE01EC01F9CFCE01029628813981820FE0
:1031E000931F20918703309188032817390769F4CA
:1031F000309729F410928A031092890302C0138237
:103200001282D0938803C0938703DF91CF910895F2
:10321000A0E0B0E0EEE0F9E10C94221AEC01CB0161
:10322000209719F40E94E117B8C0FE01E60FF71FBE
:103230009E0122503109E217F30708F4ACC0D9010E
:103240000D911C91119706171707B8F0053011055D
:1032500008F49FC0A801445051094617570708F4C5
:1032600098C002501109061B170B019311936D931F
:103270007C93CF010E9479188CC05B01A01AB10A1F
:103280004E01800E911EA0918903B0918A03612C9A
:10329000712C60E070E0109709F449C0A815B905D9
:1032A000C9F5ED90FC901197670142E0C40ED11C66
:1032B000CA14DB0478F147018A189B08640142E0D4
:1032C000C40ED11C1296BC9012971396AC91B5E027
:1032D000CB16D10440F0B282A38391828082D901BF
:1032E0008D939C9309C00E5F1F4F0E0D1F1DF9019A
:1032F00011830083EB2DFA2F6115710531F0DB018D
:103300001396FC93EE93129744C0F0938A03E093D4
:1033100089033FC06D917C9111976616770608F47A
:103320003B01BD0112960D90BC91A02DB4CF6091D0
:1033300087037091880368157905E9F468167906A2
:10334000D0F440910001509101014115510541F423
:103350004DB75EB76091040170910501461B570B94
:10336000E417F507C0F4F0938803E0938703F901AD
:10337000918380830EC00E94E1177C01009759F071
:10338000A801BE010E94F919CE010E947918C70157
:1033900004C0CE0102C080E090E0CDB7DEB7EEE021
:1033A0000C943E1A1F93FC0199278827BC01E894CE
:1033B00011911032E9F3193010F01E30C8F31B32AE
:1033C00051F01D3249F4689406C00E94091A610F39
:1033D000711D811D911D119110531A30B0F33EF4EF
:1033E00090958095709561957F4F8F4F9F4F1F915E
:1033F0000895FB01DC0102C001900D924150504044
:10340000D8F70895FB01DC0101900D920020E1F74F
:103410000895592F482F372F262F660F771F881FA3
:10342000991F660F771F881F991F620F731F841FD4
:10343000951F660F771F881F991F08952F923F923F
:103440004F925F926F927F928F929F92AF92BF92B4
:10345000CF92DF92EF92FF920F931F93CF93DF9360
:10346000CDB7DEB7CA1BDB0B0FB6F894DEBF0FBEBD
:10347000CDBF09942A88398848885F846E847D840A
:103480008C849B84AA84B984C884DF80EE80FD800C
:103490000C811B81AA81B981CE0FD11D0FB6F89482
:1034A000DEBF0FBECDBFED01089510E0C6EFD0E046
:1034B00004C0FE010E94DD172296C83FD107C9F75C
:0434C000F894FFCFAE
:1034C40000008B0380007C7C7C002626260064613F
:1034D400746F20646972656363696F6E2000000015
:1034E4000000D9088A124509B8082B095D090000B3
:1034F4000000940B670B3C0B440B570B660B00004E
:0E35040000000E118A129010A9109B10EC10FE
:00000001FF
